{
  "_format": "hh-sol-artifact-1",
  "contractName": "Todo",
  "sourceName": "contracts/Todo.sol",
  "abi": [
    {
      "anonymous": false,
      "inputs": [
        {
          "indexed": false,
          "internalType": "address",
          "name": "sender",
          "type": "address"
        },
        {
          "indexed": false,
          "internalType": "uint256",
          "name": "id",
          "type": "uint256"
        },
        {
          "indexed": false,
          "internalType": "bytes32",
          "name": "content",
          "type": "bytes32"
        }
      ],
      "name": "Add",
      "type": "event"
    },
    {
      "anonymous": false,
      "inputs": [
        {
          "indexed": false,
          "internalType": "address",
          "name": "sender",
          "type": "address"
        },
        {
          "indexed": false,
          "internalType": "enum Todo.Status",
          "name": "status",
          "type": "uint8"
        }
      ],
      "name": "Checked",
      "type": "event"
    },
    {
      "anonymous": false,
      "inputs": [
        {
          "indexed": false,
          "internalType": "address",
          "name": "sender",
          "type": "address"
        },
        {
          "indexed": false,
          "internalType": "enum Todo.Status",
          "name": "status",
          "type": "uint8"
        }
      ],
      "name": "Del",
      "type": "event"
    },
    {
      "inputs": [
        {
          "internalType": "bytes32",
          "name": "_content",
          "type": "bytes32"
        }
      ],
      "name": "add",
      "outputs": [],
      "stateMutability": "nonpayable",
      "type": "function"
    },
    {
      "inputs": [
        {
          "internalType": "uint256",
          "name": "_id",
          "type": "uint256"
        }
      ],
      "name": "checked",
      "outputs": [],
      "stateMutability": "nonpayable",
      "type": "function"
    },
    {
      "inputs": [
        {
          "internalType": "uint256",
          "name": "_id",
          "type": "uint256"
        }
      ],
      "name": "del",
      "outputs": [],
      "stateMutability": "nonpayable",
      "type": "function"
    },
    {
      "inputs": [
        {
          "internalType": "enum Todo.Status",
          "name": "_status",
          "type": "uint8"
        }
      ],
      "name": "list6",
      "outputs": [
        {
          "internalType": "uint256[]",
          "name": "ids",
          "type": "uint256[]"
        },
        {
          "internalType": "bytes32[]",
          "name": "contents",
          "type": "bytes32[]"
        },
        {
          "internalType": "enum Todo.Status[]",
          "name": "status",
          "type": "uint8[]"
        }
      ],
      "stateMutability": "view",
      "type": "function"
    }
  ],
  "bytecode": "0x60806040526000805534801561001457600080fd5b5061105a806100246000396000f3fe608060405234801561001057600080fd5b506004361061004c5760003560e01c80632e53fee214610051578063446bffba1461006d57806357771a23146100895780635b58d69d146100a5575b600080fd5b61006b60048036038101906100669190610a00565b6100d7565b005b61008760048036038101906100829190610a63565b6102a2565b005b6100a3600480360381019061009e9190610a00565b61044d565b005b6100bf60048036038101906100ba9190610ab5565b6106d8565b6040516100ce93929190610d84565b60405180910390f35b3373ffffffffffffffffffffffffffffffffffffffff166001600083815260200190815260200160002060030160009054906101000a900473ffffffffffffffffffffffffffffffffffffffff1673ffffffffffffffffffffffffffffffffffffffff161461017b576040517f08c379a000000000000000000000000000000000000000000000000000000000815260040161017290610e2d565b60405180910390fd5b6000600281111561018f5761018e610c8a565b5b6001600083815260200190815260200160002060010160009054906101000a900460ff1660028111156101c5576101c4610c8a565b5b14610205576040517f08c379a00000000000000000000000000000000000000000000000000000000081526004016101fc90610e2d565b60405180910390fd5b600180600083815260200190815260200160002060010160006101000a81548160ff0219169083600281111561023e5761023d610c8a565b5b02179055507f1aad2a2a3624265ce8f707a186eba8839533dcbf562f27084660b233c1d0793b336001600084815260200190815260200160002060010160009054906101000a900460ff16604051610297929190610e9d565b60405180910390a150565b60016000546102b19190610ef5565b60008190555060405180608001604052806000548152602001600060028111156102de576102dd610c8a565b5b81526020018281526020013373ffffffffffffffffffffffffffffffffffffffff1681525060016000805481526020019081526020016000206000820151816000015560208201518160010160006101000a81548160ff0219169083600281111561034c5761034b610c8a565b5b02179055506040820151816002015560608201518160030160006101000a81548173ffffffffffffffffffffffffffffffffffffffff021916908373ffffffffffffffffffffffffffffffffffffffff160217905550905050600260003373ffffffffffffffffffffffffffffffffffffffff1673ffffffffffffffffffffffffffffffffffffffff16815260200190815260200160002060005490806001815401808255809150506001900390600052602060002001600090919091909150557f08b29ae657326edbcdb2dbd54211ab9431ab94fc0a1c64f27eb186d1d67e60a3336000548360405161044293929190610f47565b60405180910390a150565b3373ffffffffffffffffffffffffffffffffffffffff166001600083815260200190815260200160002060030160009054906101000a900473ffffffffffffffffffffffffffffffffffffffff1673ffffffffffffffffffffffffffffffffffffffff16146104f1576040517f08c379a00000000000000000000000000000000000000000000000000000000081526004016104e890610e2d565b60405180910390fd5b3373ffffffffffffffffffffffffffffffffffffffff166001600083815260200190815260200160002060030160009054906101000a900473ffffffffffffffffffffffffffffffffffffffff1673ffffffffffffffffffffffffffffffffffffffff1614806105fb5750600160028111156105705761056f610c8a565b5b6001600083815260200190815260200160002060010160009054906101000a900460ff1660028111156105a6576105a5610c8a565b5b1480156105fa5750600060028111156105c2576105c1610c8a565b5b6001600083815260200190815260200160002060010160009054906101000a900460ff1660028111156105f8576105f7610c8a565b5b145b5b61063a576040517f08c379a000000000000000000000000000000000000000000000000000000000815260040161063190610e2d565b60405180910390fd5b60026001600083815260200190815260200160002060010160006101000a81548160ff0219169083600281111561067457610673610c8a565b5b02179055507fb73de4aa43068d02642c2998d5e6c3cca0218a74a624e6a85fbfc5c2aaa27d4b336001600084815260200190815260200160002060010160009054906101000a900460ff166040516106cd929190610e9d565b60405180910390a150565b60608060606000600260003373ffffffffffffffffffffffffffffffffffffffff1673ffffffffffffffffffffffffffffffffffffffff1681526020019081526020016000208054905090508067ffffffffffffffff81111561073e5761073d610f7e565b5b60405190808252806020026020018201604052801561076c5781602001602082028036833780820191505090505b5093508067ffffffffffffffff81111561078957610788610f7e565b5b6040519080825280602002602001820160405280156107b75781602001602082028036833780820191505090505b5092508067ffffffffffffffff8111156107d4576107d3610f7e565b5b6040519080825280602002602001820160405280156108025781602001602082028036833780820191505090505b50915060008060005b838110156109b1576000600260003373ffffffffffffffffffffffffffffffffffffffff1673ffffffffffffffffffffffffffffffffffffffff168152602001908152602001600020828154811061086657610865610fad565b5b9060005260206000200154905088600281111561088657610885610c8a565b5b6001600083815260200190815260200160002060010160009054906101000a900460ff1660028111156108bc576108bb610c8a565b5b0361099d57808884815181106108d5576108d4610fad565b5b602002602001018181525050600160008281526020019081526020016000206002015487848151811061090b5761090a610fad565b5b6020026020010181815250506001600082815260200190815260200160002060010160009054906101000a900460ff1686848151811061094e5761094d610fad565b5b6020026020010190600281111561096857610967610c8a565b5b9081600281111561097c5761097b610c8a565b5b81525050838061098b90610fdc565b945050828061099990610fdc565b9350505b5080806109a990610fdc565b91505061080b565b508186528185528184525050509193909250565b600080fd5b6000819050919050565b6109dd816109ca565b81146109e857600080fd5b50565b6000813590506109fa816109d4565b92915050565b600060208284031215610a1657610a156109c5565b5b6000610a24848285016109eb565b91505092915050565b6000819050919050565b610a4081610a2d565b8114610a4b57600080fd5b50565b600081359050610a5d81610a37565b92915050565b600060208284031215610a7957610a786109c5565b5b6000610a8784828501610a4e565b91505092915050565b60038110610a9d57600080fd5b50565b600081359050610aaf81610a90565b92915050565b600060208284031215610acb57610aca6109c5565b5b6000610ad984828501610aa0565b91505092915050565b600081519050919050565b600082825260208201905092915050565b6000819050602082019050919050565b610b17816109ca565b82525050565b6000610b298383610b0e565b60208301905092915050565b6000602082019050919050565b6000610b4d82610ae2565b610b578185610aed565b9350610b6283610afe565b8060005b83811015610b93578151610b7a8882610b1d565b9750610b8583610b35565b925050600181019050610b66565b5085935050505092915050565b600081519050919050565b600082825260208201905092915050565b6000819050602082019050919050565b610bd581610a2d565b82525050565b6000610be78383610bcc565b60208301905092915050565b6000602082019050919050565b6000610c0b82610ba0565b610c158185610bab565b9350610c2083610bbc565b8060005b83811015610c51578151610c388882610bdb565b9750610c4383610bf3565b925050600181019050610c24565b5085935050505092915050565b600081519050919050565b600082825260208201905092915050565b6000819050602082019050919050565b7f4e487b7100000000000000000000000000000000000000000000000000000000600052602160045260246000fd5b60038110610cca57610cc9610c8a565b5b50565b6000819050610cdb82610cb9565b919050565b6000610ceb82610ccd565b9050919050565b610cfb81610ce0565b82525050565b6000610d0d8383610cf2565b60208301905092915050565b6000602082019050919050565b6000610d3182610c5e565b610d3b8185610c69565b9350610d4683610c7a565b8060005b83811015610d77578151610d5e8882610d01565b9750610d6983610d19565b925050600181019050610d4a565b5085935050505092915050565b60006060820190508181036000830152610d9e8186610b42565b90508181036020830152610db28185610c00565b90508181036040830152610dc68184610d26565b9050949350505050565b600082825260208201905092915050565b7f4461746120646f6573206e6f7420657869737400000000000000000000000000600082015250565b6000610e17601383610dd0565b9150610e2282610de1565b602082019050919050565b60006020820190508181036000830152610e4681610e0a565b9050919050565b600073ffffffffffffffffffffffffffffffffffffffff82169050919050565b6000610e7882610e4d565b9050919050565b610e8881610e6d565b82525050565b610e9781610ce0565b82525050565b6000604082019050610eb26000830185610e7f565b610ebf6020830184610e8e565b9392505050565b7f4e487b7100000000000000000000000000000000000000000000000000000000600052601160045260246000fd5b6000610f00826109ca565b9150610f0b836109ca565b9250828201905080821115610f2357610f22610ec6565b5b92915050565b610f32816109ca565b82525050565b610f4181610a2d565b82525050565b6000606082019050610f5c6000830186610e7f565b610f696020830185610f29565b610f766040830184610f38565b949350505050565b7f4e487b7100000000000000000000000000000000000000000000000000000000600052604160045260246000fd5b7f4e487b7100000000000000000000000000000000000000000000000000000000600052603260045260246000fd5b6000610fe7826109ca565b91507fffffffffffffffffffffffffffffffffffffffffffffffffffffffffffffffff820361101957611018610ec6565b5b60018201905091905056fea2646970667358221220a44876addd1b73a1a9f4fe6ce84c29f42a70d692897df2d8a7b6e726faa9c2de64736f6c63430008110033",
  "linkReferences": {},
  "deployedLinkReferences": {}
}