{
  "_format": "hh-sol-artifact-1",
  "contractName": "Todo",
  "sourceName": "contracts/Todo.sol",
  "abi": [
    {
      "anonymous": false,
      "inputs": [
        {
          "indexed": false,
          "internalType": "address",
          "name": "sender",
          "type": "address"
        },
        {
          "indexed": false,
          "internalType": "uint256",
          "name": "id",
          "type": "uint256"
        },
        {
          "indexed": false,
          "internalType": "bytes32",
          "name": "content",
          "type": "bytes32"
        }
      ],
      "name": "Add",
      "type": "event"
    },
    {
      "anonymous": false,
      "inputs": [
        {
          "indexed": false,
          "internalType": "address",
          "name": "sender",
          "type": "address"
        },
        {
          "indexed": false,
          "internalType": "uint256",
          "name": "id",
          "type": "uint256"
        },
        {
          "indexed": false,
          "internalType": "enum Todo.Status",
          "name": "status",
          "type": "uint8"
        }
      ],
      "name": "Checked",
      "type": "event"
    },
    {
      "anonymous": false,
      "inputs": [
        {
          "indexed": false,
          "internalType": "address",
          "name": "sender",
          "type": "address"
        },
        {
          "indexed": false,
          "internalType": "uint256",
          "name": "id",
          "type": "uint256"
        },
        {
          "indexed": false,
          "internalType": "enum Todo.Status",
          "name": "status",
          "type": "uint8"
        }
      ],
      "name": "Del",
      "type": "event"
    },
    {
      "inputs": [
        {
          "internalType": "bytes32",
          "name": "_content",
          "type": "bytes32"
        }
      ],
      "name": "add",
      "outputs": [],
      "stateMutability": "nonpayable",
      "type": "function"
    },
    {
      "inputs": [
        {
          "internalType": "uint256",
          "name": "_id",
          "type": "uint256"
        }
      ],
      "name": "checked",
      "outputs": [],
      "stateMutability": "nonpayable",
      "type": "function"
    },
    {
      "inputs": [
        {
          "internalType": "uint256",
          "name": "_id",
          "type": "uint256"
        }
      ],
      "name": "del",
      "outputs": [],
      "stateMutability": "nonpayable",
      "type": "function"
    },
    {
      "inputs": [
        {
          "internalType": "enum Todo.Status",
          "name": "_status",
          "type": "uint8"
        }
      ],
      "name": "list",
      "outputs": [
        {
          "internalType": "uint256[]",
          "name": "ids",
          "type": "uint256[]"
        },
        {
          "internalType": "bytes32[]",
          "name": "contents",
          "type": "bytes32[]"
        },
        {
          "internalType": "enum Todo.Status[]",
          "name": "status",
          "type": "uint8[]"
        }
      ],
      "stateMutability": "view",
      "type": "function"
    }
  ],
  "bytecode": "0x60806040526000805534801561001457600080fd5b5061106c806100246000396000f3fe608060405234801561001057600080fd5b506004361061004c5760003560e01c80632e53fee214610051578063446bffba1461006d57806357771a231461008957806359923859146100a5575b600080fd5b61006b60048036038101906100669190610a04565b6100d7565b005b61008760048036038101906100829190610a67565b6102a4565b005b6100a3600480360381019061009e9190610a04565b61044f565b005b6100bf60048036038101906100ba9190610ab9565b6106dc565b6040516100ce93929190610d88565b60405180910390f35b3373ffffffffffffffffffffffffffffffffffffffff166001600083815260200190815260200160002060030160009054906101000a900473ffffffffffffffffffffffffffffffffffffffff1673ffffffffffffffffffffffffffffffffffffffff161461017b576040517f08c379a000000000000000000000000000000000000000000000000000000000815260040161017290610e31565b60405180910390fd5b6000600281111561018f5761018e610c8e565b5b6001600083815260200190815260200160002060010160009054906101000a900460ff1660028111156101c5576101c4610c8e565b5b14610205576040517f08c379a00000000000000000000000000000000000000000000000000000000081526004016101fc90610e31565b60405180910390fd5b600180600083815260200190815260200160002060010160006101000a81548160ff0219169083600281111561023e5761023d610c8e565b5b02179055507f29dd5f1c2b30f3b5bfa8a19d2d1691a6c5a061ebd2e60f8a41d68e8b0138f39933826001600085815260200190815260200160002060010160009054906101000a900460ff1660405161029993929190610eb0565b60405180910390a150565b60016000546102b39190610f16565b60008190555060405180608001604052806000548152602001600060028111156102e0576102df610c8e565b5b81526020018281526020013373ffffffffffffffffffffffffffffffffffffffff1681525060016000805481526020019081526020016000206000820151816000015560208201518160010160006101000a81548160ff0219169083600281111561034e5761034d610c8e565b5b02179055506040820151816002015560608201518160030160006101000a81548173ffffffffffffffffffffffffffffffffffffffff021916908373ffffffffffffffffffffffffffffffffffffffff160217905550905050600260003373ffffffffffffffffffffffffffffffffffffffff1673ffffffffffffffffffffffffffffffffffffffff16815260200190815260200160002060005490806001815401808255809150506001900390600052602060002001600090919091909150557f08b29ae657326edbcdb2dbd54211ab9431ab94fc0a1c64f27eb186d1d67e60a3336000548360405161044493929190610f59565b60405180910390a150565b3373ffffffffffffffffffffffffffffffffffffffff166001600083815260200190815260200160002060030160009054906101000a900473ffffffffffffffffffffffffffffffffffffffff1673ffffffffffffffffffffffffffffffffffffffff16146104f3576040517f08c379a00000000000000000000000000000000000000000000000000000000081526004016104ea90610e31565b60405180910390fd5b3373ffffffffffffffffffffffffffffffffffffffff166001600083815260200190815260200160002060030160009054906101000a900473ffffffffffffffffffffffffffffffffffffffff1673ffffffffffffffffffffffffffffffffffffffff1614806105fd57506001600281111561057257610571610c8e565b5b6001600083815260200190815260200160002060010160009054906101000a900460ff1660028111156105a8576105a7610c8e565b5b1480156105fc5750600060028111156105c4576105c3610c8e565b5b6001600083815260200190815260200160002060010160009054906101000a900460ff1660028111156105fa576105f9610c8e565b5b145b5b61063c576040517f08c379a000000000000000000000000000000000000000000000000000000000815260040161063390610e31565b60405180910390fd5b60026001600083815260200190815260200160002060010160006101000a81548160ff0219169083600281111561067657610675610c8e565b5b02179055507f036d72f167243a95070b9c5500536c59137eae1c6f2bdb3fe53aad6084bfb3c433826001600085815260200190815260200160002060010160009054906101000a900460ff166040516106d193929190610eb0565b60405180910390a150565b60608060606000600260003373ffffffffffffffffffffffffffffffffffffffff1673ffffffffffffffffffffffffffffffffffffffff1681526020019081526020016000208054905090508067ffffffffffffffff81111561074257610741610f90565b5b6040519080825280602002602001820160405280156107705781602001602082028036833780820191505090505b5093508067ffffffffffffffff81111561078d5761078c610f90565b5b6040519080825280602002602001820160405280156107bb5781602001602082028036833780820191505090505b5092508067ffffffffffffffff8111156107d8576107d7610f90565b5b6040519080825280602002602001820160405280156108065781602001602082028036833780820191505090505b50915060008060005b838110156109b5576000600260003373ffffffffffffffffffffffffffffffffffffffff1673ffffffffffffffffffffffffffffffffffffffff168152602001908152602001600020828154811061086a57610869610fbf565b5b9060005260206000200154905088600281111561088a57610889610c8e565b5b6001600083815260200190815260200160002060010160009054906101000a900460ff1660028111156108c0576108bf610c8e565b5b036109a157808884815181106108d9576108d8610fbf565b5b602002602001018181525050600160008281526020019081526020016000206002015487848151811061090f5761090e610fbf565b5b6020026020010181815250506001600082815260200190815260200160002060010160009054906101000a900460ff1686848151811061095257610951610fbf565b5b6020026020010190600281111561096c5761096b610c8e565b5b908160028111156109805761097f610c8e565b5b81525050838061098f90610fee565b945050828061099d90610fee565b9350505b5080806109ad90610fee565b91505061080f565b508186528185528184525050509193909250565b600080fd5b6000819050919050565b6109e1816109ce565b81146109ec57600080fd5b50565b6000813590506109fe816109d8565b92915050565b600060208284031215610a1a57610a196109c9565b5b6000610a28848285016109ef565b91505092915050565b6000819050919050565b610a4481610a31565b8114610a4f57600080fd5b50565b600081359050610a6181610a3b565b92915050565b600060208284031215610a7d57610a7c6109c9565b5b6000610a8b84828501610a52565b91505092915050565b60038110610aa157600080fd5b50565b600081359050610ab381610a94565b92915050565b600060208284031215610acf57610ace6109c9565b5b6000610add84828501610aa4565b91505092915050565b600081519050919050565b600082825260208201905092915050565b6000819050602082019050919050565b610b1b816109ce565b82525050565b6000610b2d8383610b12565b60208301905092915050565b6000602082019050919050565b6000610b5182610ae6565b610b5b8185610af1565b9350610b6683610b02565b8060005b83811015610b97578151610b7e8882610b21565b9750610b8983610b39565b925050600181019050610b6a565b5085935050505092915050565b600081519050919050565b600082825260208201905092915050565b6000819050602082019050919050565b610bd981610a31565b82525050565b6000610beb8383610bd0565b60208301905092915050565b6000602082019050919050565b6000610c0f82610ba4565b610c198185610baf565b9350610c2483610bc0565b8060005b83811015610c55578151610c3c8882610bdf565b9750610c4783610bf7565b925050600181019050610c28565b5085935050505092915050565b600081519050919050565b600082825260208201905092915050565b6000819050602082019050919050565b7f4e487b7100000000000000000000000000000000000000000000000000000000600052602160045260246000fd5b60038110610cce57610ccd610c8e565b5b50565b6000819050610cdf82610cbd565b919050565b6000610cef82610cd1565b9050919050565b610cff81610ce4565b82525050565b6000610d118383610cf6565b60208301905092915050565b6000602082019050919050565b6000610d3582610c62565b610d3f8185610c6d565b9350610d4a83610c7e565b8060005b83811015610d7b578151610d628882610d05565b9750610d6d83610d1d565b925050600181019050610d4e565b5085935050505092915050565b60006060820190508181036000830152610da28186610b46565b90508181036020830152610db68185610c04565b90508181036040830152610dca8184610d2a565b9050949350505050565b600082825260208201905092915050565b7f4461746120646f6573206e6f7420657869737400000000000000000000000000600082015250565b6000610e1b601383610dd4565b9150610e2682610de5565b602082019050919050565b60006020820190508181036000830152610e4a81610e0e565b9050919050565b600073ffffffffffffffffffffffffffffffffffffffff82169050919050565b6000610e7c82610e51565b9050919050565b610e8c81610e71565b82525050565b610e9b816109ce565b82525050565b610eaa81610ce4565b82525050565b6000606082019050610ec56000830186610e83565b610ed26020830185610e92565b610edf6040830184610ea1565b949350505050565b7f4e487b7100000000000000000000000000000000000000000000000000000000600052601160045260246000fd5b6000610f21826109ce565b9150610f2c836109ce565b9250828201905080821115610f4457610f43610ee7565b5b92915050565b610f5381610a31565b82525050565b6000606082019050610f6e6000830186610e83565b610f7b6020830185610e92565b610f886040830184610f4a565b949350505050565b7f4e487b7100000000000000000000000000000000000000000000000000000000600052604160045260246000fd5b7f4e487b7100000000000000000000000000000000000000000000000000000000600052603260045260246000fd5b6000610ff9826109ce565b91507fffffffffffffffffffffffffffffffffffffffffffffffffffffffffffffffff820361102b5761102a610ee7565b5b60018201905091905056fea26469706673582212203756a4da1a09b7cf6e667a725d921cea71cf02c42f6cb456681af475f5445bec64736f6c63430008110033",
  "linkReferences": {},
  "deployedLinkReferences": {}
}