{
  "_format": "hh-sol-artifact-1",
  "contractName": "Todo",
  "sourceName": "contracts/Todo.sol",
  "abi": [
    {
      "anonymous": false,
      "inputs": [
        {
          "indexed": false,
          "internalType": "address",
          "name": "sender",
          "type": "address"
        },
        {
          "indexed": false,
          "internalType": "uint256",
          "name": "id",
          "type": "uint256"
        },
        {
          "indexed": false,
          "internalType": "string",
          "name": "content",
          "type": "string"
        }
      ],
      "name": "Add",
      "type": "event"
    },
    {
      "anonymous": false,
      "inputs": [
        {
          "indexed": false,
          "internalType": "address",
          "name": "sender",
          "type": "address"
        },
        {
          "indexed": false,
          "internalType": "enum Todo.Status",
          "name": "status",
          "type": "uint8"
        }
      ],
      "name": "Checked",
      "type": "event"
    },
    {
      "anonymous": false,
      "inputs": [
        {
          "indexed": false,
          "internalType": "address",
          "name": "sender",
          "type": "address"
        },
        {
          "indexed": false,
          "internalType": "enum Todo.Status",
          "name": "status",
          "type": "uint8"
        }
      ],
      "name": "Del",
      "type": "event"
    },
    {
      "inputs": [
        {
          "internalType": "string",
          "name": "_content",
          "type": "string"
        }
      ],
      "name": "add",
      "outputs": [],
      "stateMutability": "nonpayable",
      "type": "function"
    },
    {
      "inputs": [
        {
          "internalType": "uint256",
          "name": "_id",
          "type": "uint256"
        }
      ],
      "name": "checked",
      "outputs": [],
      "stateMutability": "nonpayable",
      "type": "function"
    },
    {
      "inputs": [
        {
          "internalType": "uint256",
          "name": "_id",
          "type": "uint256"
        }
      ],
      "name": "del",
      "outputs": [],
      "stateMutability": "nonpayable",
      "type": "function"
    },
    {
      "inputs": [
        {
          "internalType": "enum Todo.Status",
          "name": "_status",
          "type": "uint8"
        }
      ],
      "name": "list",
      "outputs": [
        {
          "components": [
            {
              "internalType": "uint256",
              "name": "id",
              "type": "uint256"
            },
            {
              "internalType": "enum Todo.Status",
              "name": "status",
              "type": "uint8"
            },
            {
              "internalType": "string",
              "name": "content",
              "type": "string"
            },
            {
              "internalType": "address",
              "name": "owner",
              "type": "address"
            }
          ],
          "internalType": "struct Todo.TodoItem[]",
          "name": "",
          "type": "tuple[]"
        }
      ],
      "stateMutability": "view",
      "type": "function"
    }
  ],
  "bytecode": "0x60806040526000805534801561001457600080fd5b50611481806100246000396000f3fe608060405234801561001057600080fd5b506004361061004c5760003560e01c80632e53fee21461005157806357771a231461006d5780635992385914610089578063b0c8f9dc146100b9575b600080fd5b61006b60048036038101906100669190610aae565b6100d5565b005b61008760048036038101906100829190610aae565b6102a0565b005b6100a3600480360381019061009e9190610b00565b61052b565b6040516100b09190610da9565b60405180910390f35b6100d360048036038101906100ce9190610f00565b61085d565b005b3373ffffffffffffffffffffffffffffffffffffffff166001600083815260200190815260200160002060030160009054906101000a900473ffffffffffffffffffffffffffffffffffffffff1673ffffffffffffffffffffffffffffffffffffffff1614610179576040517f08c379a000000000000000000000000000000000000000000000000000000000815260040161017090610fa6565b60405180910390fd5b6000600281111561018d5761018c610b68565b5b6001600083815260200190815260200160002060010160009054906101000a900460ff1660028111156101c3576101c2610b68565b5b14610203576040517f08c379a00000000000000000000000000000000000000000000000000000000081526004016101fa90610fa6565b60405180910390fd5b600180600083815260200190815260200160002060010160006101000a81548160ff0219169083600281111561023c5761023b610b68565b5b02179055507f1aad2a2a3624265ce8f707a186eba8839533dcbf562f27084660b233c1d0793b336001600084815260200190815260200160002060010160009054906101000a900460ff16604051610295929190610fe4565b60405180910390a150565b3373ffffffffffffffffffffffffffffffffffffffff166001600083815260200190815260200160002060030160009054906101000a900473ffffffffffffffffffffffffffffffffffffffff1673ffffffffffffffffffffffffffffffffffffffff1614610344576040517f08c379a000000000000000000000000000000000000000000000000000000000815260040161033b90610fa6565b60405180910390fd5b3373ffffffffffffffffffffffffffffffffffffffff166001600083815260200190815260200160002060030160009054906101000a900473ffffffffffffffffffffffffffffffffffffffff1673ffffffffffffffffffffffffffffffffffffffff16148061044e5750600160028111156103c3576103c2610b68565b5b6001600083815260200190815260200160002060010160009054906101000a900460ff1660028111156103f9576103f8610b68565b5b14801561044d57506000600281111561041557610414610b68565b5b6001600083815260200190815260200160002060010160009054906101000a900460ff16600281111561044b5761044a610b68565b5b145b5b61048d576040517f08c379a000000000000000000000000000000000000000000000000000000000815260040161048490610fa6565b60405180910390fd5b60026001600083815260200190815260200160002060010160006101000a81548160ff021916908360028111156104c7576104c6610b68565b5b02179055507fb73de4aa43068d02642c2998d5e6c3cca0218a74a624e6a85fbfc5c2aaa27d4b336001600084815260200190815260200160002060010160009054906101000a900460ff16604051610520929190610fe4565b60405180910390a150565b60606000600260003373ffffffffffffffffffffffffffffffffffffffff1673ffffffffffffffffffffffffffffffffffffffff1681526020019081526020016000208054905067ffffffffffffffff81111561058b5761058a610dd5565b5b6040519080825280602002602001820160405280156105c457816020015b6105b1610a14565b8152602001906001900390816105a95790505b5090506000805b600260003373ffffffffffffffffffffffffffffffffffffffff1673ffffffffffffffffffffffffffffffffffffffff1681526020019081526020016000208054905081101561084f576000600260003373ffffffffffffffffffffffffffffffffffffffff1673ffffffffffffffffffffffffffffffffffffffff16815260200190815260200160002082815481106106685761066761100d565b5b9060005260206000200154905085600281111561068857610687610b68565b5b6001600083815260200190815260200160002060010160009054906101000a900460ff1660028111156106be576106bd610b68565b5b0361083b5760016000828152602001908152602001600020604051806080016040529081600082015481526020016001820160009054906101000a900460ff1660028111156107105761070f610b68565b5b600281111561072257610721610b68565b5b81526020016002820180546107369061106b565b80601f01602080910402602001604051908101604052809291908181526020018280546107629061106b565b80156107af5780601f10610784576101008083540402835291602001916107af565b820191906000526020600020905b81548152906001019060200180831161079257829003601f168201915b505050505081526020016003820160009054906101000a900473ffffffffffffffffffffffffffffffffffffffff1673ffffffffffffffffffffffffffffffffffffffff1673ffffffffffffffffffffffffffffffffffffffff16815250508484815181106108215761082061100d565b5b60200260200101819052508280610837906110cb565b9350505b508080610847906110cb565b9150506105cb565b508082528192505050919050565b600160005461086c9190611113565b600081905550604051806080016040528060005481526020016000600281111561089957610898610b68565b5b81526020018281526020013373ffffffffffffffffffffffffffffffffffffffff1681525060016000805481526020019081526020016000206000820151816000015560208201518160010160006101000a81548160ff0219169083600281111561090757610906610b68565b5b0217905550604082015181600201908161092191906112f3565b5060608201518160030160006101000a81548173ffffffffffffffffffffffffffffffffffffffff021916908373ffffffffffffffffffffffffffffffffffffffff160217905550905050600260003373ffffffffffffffffffffffffffffffffffffffff1673ffffffffffffffffffffffffffffffffffffffff16815260200190815260200160002060005490806001815401808255809150506001900390600052602060002001600090919091909150557f2799d39f039a9f1826ca8c6203edafd19fcae38a8afe47118d69b58ad2259dfb3360005483604051610a099392919061140d565b60405180910390a150565b60405180608001604052806000815260200160006002811115610a3a57610a39610b68565b5b815260200160608152602001600073ffffffffffffffffffffffffffffffffffffffff1681525090565b6000604051905090565b600080fd5b600080fd5b6000819050919050565b610a8b81610a78565b8114610a9657600080fd5b50565b600081359050610aa881610a82565b92915050565b600060208284031215610ac457610ac3610a6e565b5b6000610ad284828501610a99565b91505092915050565b60038110610ae857600080fd5b50565b600081359050610afa81610adb565b92915050565b600060208284031215610b1657610b15610a6e565b5b6000610b2484828501610aeb565b91505092915050565b600081519050919050565b600082825260208201905092915050565b6000819050602082019050919050565b610b6281610a78565b82525050565b7f4e487b7100000000000000000000000000000000000000000000000000000000600052602160045260246000fd5b60038110610ba857610ba7610b68565b5b50565b6000819050610bb982610b97565b919050565b6000610bc982610bab565b9050919050565b610bd981610bbe565b82525050565b600081519050919050565b600082825260208201905092915050565b60005b83811015610c19578082015181840152602081019050610bfe565b60008484015250505050565b6000601f19601f8301169050919050565b6000610c4182610bdf565b610c4b8185610bea565b9350610c5b818560208601610bfb565b610c6481610c25565b840191505092915050565b600073ffffffffffffffffffffffffffffffffffffffff82169050919050565b6000610c9a82610c6f565b9050919050565b610caa81610c8f565b82525050565b6000608083016000830151610cc86000860182610b59565b506020830151610cdb6020860182610bd0565b5060408301518482036040860152610cf38282610c36565b9150506060830151610d086060860182610ca1565b508091505092915050565b6000610d1f8383610cb0565b905092915050565b6000602082019050919050565b6000610d3f82610b2d565b610d498185610b38565b935083602082028501610d5b85610b49565b8060005b85811015610d975784840389528151610d788582610d13565b9450610d8383610d27565b925060208a01995050600181019050610d5f565b50829750879550505050505092915050565b60006020820190508181036000830152610dc38184610d34565b905092915050565b600080fd5b600080fd5b7f4e487b7100000000000000000000000000000000000000000000000000000000600052604160045260246000fd5b610e0d82610c25565b810181811067ffffffffffffffff82111715610e2c57610e2b610dd5565b5b80604052505050565b6000610e3f610a64565b9050610e4b8282610e04565b919050565b600067ffffffffffffffff821115610e6b57610e6a610dd5565b5b610e7482610c25565b9050602081019050919050565b82818337600083830152505050565b6000610ea3610e9e84610e50565b610e35565b905082815260208101848484011115610ebf57610ebe610dd0565b5b610eca848285610e81565b509392505050565b600082601f830112610ee757610ee6610dcb565b5b8135610ef7848260208601610e90565b91505092915050565b600060208284031215610f1657610f15610a6e565b5b600082013567ffffffffffffffff811115610f3457610f33610a73565b5b610f4084828501610ed2565b91505092915050565b600082825260208201905092915050565b7f4461746120646f6573206e6f7420657869737400000000000000000000000000600082015250565b6000610f90601383610f49565b9150610f9b82610f5a565b602082019050919050565b60006020820190508181036000830152610fbf81610f83565b9050919050565b610fcf81610c8f565b82525050565b610fde81610bbe565b82525050565b6000604082019050610ff96000830185610fc6565b6110066020830184610fd5565b9392505050565b7f4e487b7100000000000000000000000000000000000000000000000000000000600052603260045260246000fd5b7f4e487b7100000000000000000000000000000000000000000000000000000000600052602260045260246000fd5b6000600282049050600182168061108357607f821691505b6020821081036110965761109561103c565b5b50919050565b7f4e487b7100000000000000000000000000000000000000000000000000000000600052601160045260246000fd5b60006110d682610a78565b91507fffffffffffffffffffffffffffffffffffffffffffffffffffffffffffffffff82036111085761110761109c565b5b600182019050919050565b600061111e82610a78565b915061112983610a78565b92508282019050808211156111415761114061109c565b5b92915050565b60008190508160005260206000209050919050565b60006020601f8301049050919050565b600082821b905092915050565b6000600883026111a97fffffffffffffffffffffffffffffffffffffffffffffffffffffffffffffffff8261116c565b6111b3868361116c565b95508019841693508086168417925050509392505050565b6000819050919050565b60006111f06111eb6111e684610a78565b6111cb565b610a78565b9050919050565b6000819050919050565b61120a836111d5565b61121e611216826111f7565b848454611179565b825550505050565b600090565b611233611226565b61123e818484611201565b505050565b5b818110156112625761125760008261122b565b600181019050611244565b5050565b601f8211156112a75761127881611147565b6112818461115c565b81016020851015611290578190505b6112a461129c8561115c565b830182611243565b50505b505050565b600082821c905092915050565b60006112ca600019846008026112ac565b1980831691505092915050565b60006112e383836112b9565b9150826002028217905092915050565b6112fc82610bdf565b67ffffffffffffffff81111561131557611314610dd5565b5b61131f825461106b565b61132a828285611266565b600060209050601f83116001811461135d576000841561134b578287015190505b61135585826112d7565b8655506113bd565b601f19841661136b86611147565b60005b828110156113935784890151825560018201915060208501945060208101905061136e565b868310156113b057848901516113ac601f8916826112b9565b8355505b6001600288020188555050505b505050505050565b6113ce81610a78565b82525050565b60006113df82610bdf565b6113e98185610f49565b93506113f9818560208601610bfb565b61140281610c25565b840191505092915050565b60006060820190506114226000830186610fc6565b61142f60208301856113c5565b818103604083015261144181846113d4565b905094935050505056fea26469706673582212205bc596e569810115f36a1b125822d6608d718f5ebf679cfa8f5cec6628f7e76064736f6c63430008110033",
  "linkReferences": {},
  "deployedLinkReferences": {}
}